{
  "address": "0x013C9918f9b66807652Ac849C1813090a5750a05",
  "abi": [
    {
      "inputs": [],
      "name": "InvalidInitialization",
      "type": "error"
    },
    {
      "inputs": [],
      "name": "NotInitializing",
      "type": "error"
    },
    {
      "inputs": [
        {
          "internalType": "address",
          "name": "owner",
          "type": "address"
        }
      ],
      "name": "OwnableInvalidOwner",
      "type": "error"
    },
    {
      "inputs": [
        {
          "internalType": "address",
          "name": "account",
          "type": "address"
        }
      ],
      "name": "OwnableUnauthorizedAccount",
      "type": "error"
    },
    {
      "anonymous": false,
      "inputs": [
        {
          "indexed": false,
          "internalType": "uint64",
          "name": "version",
          "type": "uint64"
        }
      ],
      "name": "Initialized",
      "type": "event"
    },
    {
      "anonymous": false,
      "inputs": [
        {
          "indexed": true,
          "internalType": "address",
          "name": "previousOwner",
          "type": "address"
        },
        {
          "indexed": true,
          "internalType": "address",
          "name": "newOwner",
          "type": "address"
        }
      ],
      "name": "OwnershipTransferred",
      "type": "event"
    },
    {
      "inputs": [],
      "name": "greeting",
      "outputs": [
        {
          "internalType": "string",
          "name": "",
          "type": "string"
        }
      ],
      "stateMutability": "view",
      "type": "function"
    },
    {
      "inputs": [
        {
          "internalType": "string",
          "name": "_greeting",
          "type": "string"
        }
      ],
      "name": "initialize",
      "outputs": [],
      "stateMutability": "nonpayable",
      "type": "function"
    },
    {
      "inputs": [],
      "name": "owner",
      "outputs": [
        {
          "internalType": "address",
          "name": "",
          "type": "address"
        }
      ],
      "stateMutability": "view",
      "type": "function"
    },
    {
      "inputs": [],
      "name": "renounceOwnership",
      "outputs": [],
      "stateMutability": "nonpayable",
      "type": "function"
    },
    {
      "inputs": [
        {
          "internalType": "string",
          "name": "_greeting",
          "type": "string"
        }
      ],
      "name": "setGreeting",
      "outputs": [],
      "stateMutability": "nonpayable",
      "type": "function"
    },
    {
      "inputs": [
        {
          "internalType": "address",
          "name": "newOwner",
          "type": "address"
        }
      ],
      "name": "transferOwnership",
      "outputs": [],
      "stateMutability": "nonpayable",
      "type": "function"
    }
  ],
  "transactionHash": "0x5d925218e0929d82c968ba78c29094c5374a4b57e01609a0b50b81e35ab1271b",
  "args": [],
  "numDeployments": 1,
  "solcInputHash": "b2b7ee50f5cef99acc5c6ad38bf24f4e",
  "bytecode": "0x6080604052348015600f57600080fd5b506107118061001f6000396000f3fe608060405234801561001057600080fd5b50600436106100625760003560e01c8063715018a6146100675780638da5cb5b14610071578063a4136862146100b0578063ef690cc0146100c3578063f2fde38b146100d8578063f62d1888146100eb575b600080fd5b61006f6100fe565b005b7f9016d09d72d40fdae2fd8ceac6b6234c7706214fd39c1cd1e609a0528c199300546040516001600160a01b0390911681526020015b60405180910390f35b61006f6100be36600461045c565b610112565b6100cb61012a565b6040516100a79190610515565b61006f6100e6366004610563565b6101b8565b61006f6100f936600461045c565b6101fb565b610106610318565b6101106000610373565b565b61011a610318565b6000610126828261061c565b5050565b6000805461013790610593565b80601f016020809104026020016040519081016040528092919081815260200182805461016390610593565b80156101b05780601f10610185576101008083540402835291602001916101b0565b820191906000526020600020905b81548152906001019060200180831161019357829003601f168201915b505050505081565b6101c0610318565b6001600160a01b0381166101ef57604051631e4fbdf760e01b8152600060048201526024015b60405180910390fd5b6101f881610373565b50565b7ff0c57e16840df040f15088dc2f81fe391c3923bec73e23a9662efc9c229c6a008054600160401b810460ff16159067ffffffffffffffff166000811580156102415750825b905060008267ffffffffffffffff16600114801561025e5750303b155b90508115801561026c575080155b1561028a5760405163f92ee8a960e01b815260040160405180910390fd5b845467ffffffffffffffff1916600117855583156102b457845460ff60401b1916600160401b1785555b6102bd336103e4565b60006102c9878261061c565b50831561031057845460ff60401b19168555604051600181527fc7f505b2f371ae2175ee4913f4499e1f2633a7b5936321eed1cdaeb6115181d29060200160405180910390a15b505050505050565b3361034a7f9016d09d72d40fdae2fd8ceac6b6234c7706214fd39c1cd1e609a0528c199300546001600160a01b031690565b6001600160a01b0316146101105760405163118cdaa760e01b81523360048201526024016101e6565b7f9016d09d72d40fdae2fd8ceac6b6234c7706214fd39c1cd1e609a0528c19930080546001600160a01b031981166001600160a01b03848116918217845560405192169182907f8be0079c531659141344cd1fd0a4f28419497f9722a3daafe3b4186f6b6457e090600090a3505050565b6103ec6103f5565b6101f88161043e565b7ff0c57e16840df040f15088dc2f81fe391c3923bec73e23a9662efc9c229c6a0054600160401b900460ff1661011057604051631afcd79f60e31b815260040160405180910390fd5b6101c06103f5565b634e487b7160e01b600052604160045260246000fd5b60006020828403121561046e57600080fd5b813567ffffffffffffffff81111561048557600080fd5b8201601f8101841361049657600080fd5b803567ffffffffffffffff8111156104b0576104b0610446565b604051601f8201601f19908116603f0116810167ffffffffffffffff811182821017156104df576104df610446565b6040528181528282016020018610156104f757600080fd5b81602084016020830137600091810160200191909152949350505050565b602081526000825180602084015260005b818110156105435760208186018101516040868401015201610526565b506000604082850101526040601f19601f83011684010191505092915050565b60006020828403121561057557600080fd5b81356001600160a01b038116811461058c57600080fd5b9392505050565b600181811c908216806105a757607f821691505b6020821081036105c757634e487b7160e01b600052602260045260246000fd5b50919050565b601f82111561061757806000526020600020601f840160051c810160208510156105f45750805b601f840160051c820191505b818110156106145760008155600101610600565b50505b505050565b815167ffffffffffffffff81111561063657610636610446565b61064a816106448454610593565b846105cd565b6020601f82116001811461067e57600083156106665750848201515b600019600385901b1c1916600184901b178455610614565b600084815260208120601f198516915b828110156106ae578785015182556020948501946001909201910161068e565b50848210156106cc5786840151600019600387901b60f8161c191681555b50505050600190811b0190555056fea2646970667358221220d14b0ff2e3c821f0ca658f2298a59ec9e9e892cbf947e6b2eeb998ed751963df64736f6c634300081d0033",
  "devdoc": {
    "errors": {
      "InvalidInitialization()": [
        {
          "details": "The contract is already initialized."
        }
      ],
      "NotInitializing()": [
        {
          "details": "The contract is not initializing."
        }
      ],
      "OwnableInvalidOwner(address)": [
        {
          "details": "The owner is not a valid owner account. (eg. `address(0)`)"
        }
      ],
      "OwnableUnauthorizedAccount(address)": [
        {
          "details": "The caller account is not authorized to perform an operation."
        }
      ]
    },
    "events": {
      "Initialized(uint64)": {
        "details": "Triggered when the contract has been initialized or reinitialized."
      }
    },
    "kind": "dev",
    "methods": {
      "owner()": {
        "details": "Returns the address of the current owner."
      },
      "renounceOwnership()": {
        "details": "Leaves the contract without owner. It will not be possible to call `onlyOwner` functions. Can only be called by the current owner. NOTE: Renouncing ownership will leave the contract without an owner, thereby disabling any functionality that is only available to the owner."
      },
      "transferOwnership(address)": {
        "details": "Transfers ownership of the contract to a new account (`newOwner`). Can only be called by the current owner."
      }
    },
    "version": 1
  },
  "userdoc": {
    "kind": "user",
    "methods": {},
    "version": 1
  },
  "storageLayout": {
    "storage": [
      {
        "astId": 516,
        "contract": "contracts/ToVerify.sol:ToVerify",
        "label": "greeting",
        "offset": 0,
        "slot": "0",
        "type": "t_string_storage"
      }
    ],
    "types": {
      "t_string_storage": {
        "encoding": "bytes",
        "label": "string",
        "numberOfBytes": "32"
      }
    }
  }
}